{
  "address": "0x9Eb367c99cBEB01894cC595aab6B07682464AF2b",
  "abi": [
    {
      "inputs": [
        {
          "internalType": "address",
          "name": "_token0",
          "type": "address"
        },
        {
          "internalType": "address",
          "name": "_token1",
          "type": "address"
        },
        {
          "internalType": "uint24",
          "name": "_feeBps",
          "type": "uint24"
        },
        {
          "internalType": "int24",
          "name": "_tickSpacing",
          "type": "int24"
        }
      ],
      "stateMutability": "nonpayable",
      "type": "constructor"
    },
    {
      "inputs": [],
      "name": "InvalidTickRange",
      "type": "error"
    },
    {
      "inputs": [],
      "name": "NotInitialized",
      "type": "error"
    },
    {
      "inputs": [],
      "name": "ZeroLiquidity",
      "type": "error"
    },
    {
      "anonymous": false,
      "inputs": [
        {
          "indexed": true,
          "internalType": "address",
          "name": "owner",
          "type": "address"
        },
        {
          "indexed": true,
          "internalType": "int24",
          "name": "lowerTick",
          "type": "int24"
        },
        {
          "indexed": true,
          "internalType": "int24",
          "name": "upperTick",
          "type": "int24"
        },
        {
          "indexed": false,
          "internalType": "uint128",
          "name": "liquidity",
          "type": "uint128"
        },
        {
          "indexed": false,
          "internalType": "uint256",
          "name": "amount0",
          "type": "uint256"
        },
        {
          "indexed": false,
          "internalType": "uint256",
          "name": "amount1",
          "type": "uint256"
        }
      ],
      "name": "Burn",
      "type": "event"
    },
    {
      "anonymous": false,
      "inputs": [
        {
          "indexed": false,
          "internalType": "uint160",
          "name": "sqrtPriceX96",
          "type": "uint160"
        },
        {
          "indexed": false,
          "internalType": "int24",
          "name": "tick",
          "type": "int24"
        }
      ],
      "name": "Initialize",
      "type": "event"
    },
    {
      "anonymous": false,
      "inputs": [
        {
          "indexed": true,
          "internalType": "address",
          "name": "owner",
          "type": "address"
        },
        {
          "indexed": true,
          "internalType": "int24",
          "name": "lowerTick",
          "type": "int24"
        },
        {
          "indexed": true,
          "internalType": "int24",
          "name": "upperTick",
          "type": "int24"
        },
        {
          "indexed": false,
          "internalType": "uint128",
          "name": "liquidity",
          "type": "uint128"
        },
        {
          "indexed": false,
          "internalType": "uint256",
          "name": "amount0",
          "type": "uint256"
        },
        {
          "indexed": false,
          "internalType": "uint256",
          "name": "amount1",
          "type": "uint256"
        }
      ],
      "name": "Mint",
      "type": "event"
    },
    {
      "anonymous": false,
      "inputs": [
        {
          "indexed": true,
          "internalType": "address",
          "name": "sender",
          "type": "address"
        },
        {
          "indexed": false,
          "internalType": "bool",
          "name": "zeroForOne",
          "type": "bool"
        },
        {
          "indexed": false,
          "internalType": "uint256",
          "name": "amountIn",
          "type": "uint256"
        },
        {
          "indexed": false,
          "internalType": "uint256",
          "name": "amountOut",
          "type": "uint256"
        },
        {
          "indexed": false,
          "internalType": "uint160",
          "name": "sqrtPriceX96",
          "type": "uint160"
        },
        {
          "indexed": false,
          "internalType": "int24",
          "name": "tickCurrent",
          "type": "int24"
        }
      ],
      "name": "Swap",
      "type": "event"
    },
    {
      "inputs": [
        {
          "internalType": "address",
          "name": "owner",
          "type": "address"
        },
        {
          "internalType": "int24",
          "name": "lowerTick",
          "type": "int24"
        },
        {
          "internalType": "int24",
          "name": "upperTick",
          "type": "int24"
        },
        {
          "internalType": "uint128",
          "name": "liq",
          "type": "uint128"
        },
        {
          "internalType": "address",
          "name": "to",
          "type": "address"
        }
      ],
      "name": "burn",
      "outputs": [
        {
          "internalType": "uint256",
          "name": "amount0",
          "type": "uint256"
        },
        {
          "internalType": "uint256",
          "name": "amount1",
          "type": "uint256"
        }
      ],
      "stateMutability": "nonpayable",
      "type": "function"
    },
    {
      "inputs": [],
      "name": "feeBps",
      "outputs": [
        {
          "internalType": "uint24",
          "name": "",
          "type": "uint24"
        }
      ],
      "stateMutability": "view",
      "type": "function"
    },
    {
      "inputs": [
        {
          "internalType": "uint160",
          "name": "_sqrtPriceX96",
          "type": "uint160"
        },
        {
          "internalType": "int24",
          "name": "_tick",
          "type": "int24"
        }
      ],
      "name": "initialize",
      "outputs": [],
      "stateMutability": "nonpayable",
      "type": "function"
    },
    {
      "inputs": [],
      "name": "liquidity",
      "outputs": [
        {
          "internalType": "uint128",
          "name": "",
          "type": "uint128"
        }
      ],
      "stateMutability": "view",
      "type": "function"
    },
    {
      "inputs": [
        {
          "internalType": "address",
          "name": "owner",
          "type": "address"
        },
        {
          "internalType": "int24",
          "name": "lowerTick",
          "type": "int24"
        },
        {
          "internalType": "int24",
          "name": "upperTick",
          "type": "int24"
        },
        {
          "internalType": "uint128",
          "name": "liq",
          "type": "uint128"
        },
        {
          "internalType": "address",
          "name": "payer",
          "type": "address"
        }
      ],
      "name": "mint",
      "outputs": [
        {
          "internalType": "uint256",
          "name": "amount0",
          "type": "uint256"
        },
        {
          "internalType": "uint256",
          "name": "amount1",
          "type": "uint256"
        }
      ],
      "stateMutability": "nonpayable",
      "type": "function"
    },
    {
      "inputs": [
        {
          "internalType": "bytes32",
          "name": "",
          "type": "bytes32"
        }
      ],
      "name": "positions",
      "outputs": [
        {
          "internalType": "uint128",
          "name": "liquidity",
          "type": "uint128"
        },
        {
          "internalType": "int24",
          "name": "lowerTick",
          "type": "int24"
        },
        {
          "internalType": "int24",
          "name": "upperTick",
          "type": "int24"
        },
        {
          "internalType": "address",
          "name": "owner",
          "type": "address"
        }
      ],
      "stateMutability": "view",
      "type": "function"
    },
    {
      "inputs": [],
      "name": "sqrtPriceX96",
      "outputs": [
        {
          "internalType": "uint160",
          "name": "",
          "type": "uint160"
        }
      ],
      "stateMutability": "view",
      "type": "function"
    },
    {
      "inputs": [
        {
          "internalType": "bool",
          "name": "zeroForOne",
          "type": "bool"
        },
        {
          "internalType": "uint256",
          "name": "amountSpecified",
          "type": "uint256"
        },
        {
          "internalType": "address",
          "name": "to",
          "type": "address"
        }
      ],
      "name": "swap",
      "outputs": [
        {
          "internalType": "uint256",
          "name": "amountOut",
          "type": "uint256"
        }
      ],
      "stateMutability": "nonpayable",
      "type": "function"
    },
    {
      "inputs": [],
      "name": "tickCurrent",
      "outputs": [
        {
          "internalType": "int24",
          "name": "",
          "type": "int24"
        }
      ],
      "stateMutability": "view",
      "type": "function"
    },
    {
      "inputs": [],
      "name": "tickSpacing",
      "outputs": [
        {
          "internalType": "int24",
          "name": "",
          "type": "int24"
        }
      ],
      "stateMutability": "view",
      "type": "function"
    },
    {
      "inputs": [
        {
          "internalType": "int24",
          "name": "",
          "type": "int24"
        }
      ],
      "name": "ticks",
      "outputs": [
        {
          "internalType": "int128",
          "name": "liquidityNet",
          "type": "int128"
        },
        {
          "internalType": "bool",
          "name": "initialized",
          "type": "bool"
        }
      ],
      "stateMutability": "view",
      "type": "function"
    },
    {
      "inputs": [],
      "name": "token0",
      "outputs": [
        {
          "internalType": "address",
          "name": "",
          "type": "address"
        }
      ],
      "stateMutability": "view",
      "type": "function"
    },
    {
      "inputs": [],
      "name": "token1",
      "outputs": [
        {
          "internalType": "address",
          "name": "",
          "type": "address"
        }
      ],
      "stateMutability": "view",
      "type": "function"
    }
  ],
  "transactionHash": "0x24e6599d6525d1cfdb34067d329ce6d472fa1505d8f08f946180e283f7166c02",
  "args": [
    "0x9551eDef00De5f2b117B202ba3c78720D348Cfb6",
    "0xA578878755522EF390c479699581D026fd875f47",
    30,
    100
  ],
  "numDeployments": 1,
  "solcInputHash": "258a58910fb9b85a1af040ee380d9f1e",
  "bytecode": "0x6101006040523480156200001257600080fd5b506040516200199d3803806200199d833981016040819052620000359162000149565b60016000556001600160a01b038416158015906200005b57506001600160a01b03831615155b80156200007a5750826001600160a01b0316846001600160a01b031614155b620000b95760405162461bcd60e51b815260206004820152600a60248201526962616420746f6b656e7360b01b60448201526064015b60405180910390fd5b6127108262ffffff161115620001015760405162461bcd60e51b815260206004820152600c60248201526b0cccaca40e8dede40d0d2ced60a31b6044820152606401620000b0565b6001600160a01b039384166080529190921660a05262ffffff90911660c05260020b60e052620001b8565b80516001600160a01b03811681146200014457600080fd5b919050565b600080600080608085870312156200016057600080fd5b6200016b856200012c565b93506200017b602086016200012c565b9250604085015162ffffff811681146200019457600080fd5b8092505060608501518060020b8114620001ad57600080fd5b939692955090935050565b60805160a05160c05160e0516117516200024c600039600081816102a701528181610593015281816107b7015281816109a301526109d901526000818161014801526104800152600081816102ce015281816106420152818161070101528181610c77015261102601526000818160d9015281816104dd0152818161086601528181610bb00152610f5d01526117516000f3fe608060405234801561001057600080fd5b50600436106100cf5760003560e01c80638db791d21161008c578063d0c93a7c11610066578063d0c93a7c146102a2578063d21220a7146102c9578063e18fdf47146102f0578063f30dba931461030357600080fd5b80638db791d2146102405780639912011b14610253578063d070de951461027b57600080fd5b80630dfe1681146100d45780631a6865021461011857806324a9d85314610143578063514ea4bf1461017e57806356efa4fa1461020a5780635b56e0381461021f575b600080fd5b6100fb7f000000000000000000000000000000000000000000000000000000000000000081565b6040516001600160a01b0390911681526020015b60405180910390f35b60025461012b906001600160801b031681565b6040516001600160801b03909116815260200161010f565b61016a7f000000000000000000000000000000000000000000000000000000000000000081565b60405162ffffff909116815260200161010f565b6101d161018c366004611384565b600460205260009081526040902080546001909101546001600160801b03821691600160801b8104600290810b92600160981b909204900b906001600160a01b031684565b604080516001600160801b039095168552600293840b60208601529190920b908301526001600160a01b0316606082015260800161010f565b61021d6102183660046113cc565b61034d565b005b61023261022d36600461140f565b610406565b60405190815260200161010f565b6001546100fb906001600160a01b031681565b610266610261366004611451565b610983565b6040805192835260208301919091520161010f565b60015461028f90600160a01b900460020b81565b60405160029190910b815260200161010f565b61028f7f000000000000000000000000000000000000000000000000000000000000000081565b6100fb7f000000000000000000000000000000000000000000000000000000000000000081565b6102666102fe366004611451565b610de7565b6103336103113660046114ca565b600360205260009081526040902054600f81900b90600160801b900460ff1682565b60408051600f9390930b835290151560208301520161010f565b6001546001600160a01b03161561039a5760405162461bcd60e51b815260206004820152600c60248201526b185b1c9958591e481a5b9a5d60a21b60448201526064015b60405180910390fd5b600180546001600160a01b0384166001600160b81b03199091168117600160a01b62ffffff8516021790915560408051918252600283900b60208301527f98636036cb66a9c19a37435efc1e90142190214e8abeb821bdba3f2990dd4c95910160405180910390a15050565b6000610410611169565b6001546001600160a01b031660000361043c576040516321c4e35760e21b815260040160405180910390fd5b600083116104725760405162461bcd60e51b8152602060048201526003602482015262185b5d60ea1b6044820152606401610391565b60006127106104a662ffffff7f000000000000000000000000000000000000000000000000000000000000000016866114fb565b6104b09190611528565b905060006104be828661153c565b905085156106ea576040516323b872dd60e01b81526001600160a01b037f000000000000000000000000000000000000000000000000000000000000000016906323b872dd9061051690339030908a9060040161154f565b6020604051808303816000875af1158015610535573d6000803e3d6000fd5b505050506040513d601f19601f820116820180604052508101906105599190611573565b61058d5760405162461bcd60e51b8152602060048201526005602482015264070756c6c360dc1b6044820152606401610391565b600180547f000000000000000000000000000000000000000000000000000000000000000091906014906105cc908490600160a01b900460020b611590565b92506101000a81548162ffffff021916908360020b62ffffff160217905550610603600160149054906101000a900460020b6111c2565b600180546001600160a01b0319166001600160a01b0392831617905560405163a9059cbb60e01b815285821660048201526024810183905291935083917f00000000000000000000000000000000000000000000000000000000000000009091169063a9059cbb906044016020604051808303816000875af115801561068d573d6000803e3d6000fd5b505050506040513d601f19601f820116820180604052508101906106b19190611573565b6106e55760405162461bcd60e51b815260206004820152600560248201526473656e643160d81b6044820152606401610391565b610909565b6040516323b872dd60e01b81526001600160a01b037f000000000000000000000000000000000000000000000000000000000000000016906323b872dd9061073a90339030908a9060040161154f565b6020604051808303816000875af1158015610759573d6000803e3d6000fd5b505050506040513d601f19601f8201168201806040525081019061077d9190611573565b6107b15760405162461bcd60e51b815260206004820152600560248201526470756c6c3160d81b6044820152606401610391565b600180547f000000000000000000000000000000000000000000000000000000000000000091906014906107f0908490600160a01b900460020b6115b5565b92506101000a81548162ffffff021916908360020b62ffffff160217905550610827600160149054906101000a900460020b6111c2565b600180546001600160a01b0319166001600160a01b0392831617905560405163a9059cbb60e01b815285821660048201526024810183905291935083917f00000000000000000000000000000000000000000000000000000000000000009091169063a9059cbb906044016020604051808303816000875af11580156108b1573d6000803e3d6000fd5b505050506040513d601f19601f820116820180604052508101906108d59190611573565b6109095760405162461bcd60e51b8152602060048201526005602482015264073656e64360dc1b6044820152606401610391565b600154604080518815158152602081018890529081018590526001600160a01b0382166060820152600160a01b90910460020b608082015233907f7510a7be19ea3795ca5e374422476d082aed37ada95671ecb478c9241fcdd48a9060a00160405180910390a2505061097c6001600055565b9392505050565b60008061098e611169565b8560020b8560020b1315806109ce57506109c87f0000000000000000000000000000000000000000000000000000000000000000876115da565b60020b15155b80610a0457506109fe7f0000000000000000000000000000000000000000000000000000000000000000866115da565b60020b15155b15610a21576040516264847d60e41b815260040160405180910390fd5b836001600160801b0316600003610a4b57604051630200e8a960e31b815260040160405180910390fd5b6001546001600160a01b0316600003610a77576040516321c4e35760e21b815260040160405180910390fd5b6000610a848888886111fa565b60008181526004602052604090206001810154919250906001600160a01b0316610b00576001810180546001600160a01b0319166001600160a01b038b16179055805465ffffffffffff60801b1916600160801b62ffffff8a81169190910262ffffff60981b191691909117600160981b918916919091021781555b610b148888886001600160801b0316611247565b600154600289810b600160a01b909204900b12801590610b435750600154600288810b600160a01b909204900b125b15610b8b5760028054879190600090610b669084906001600160801b03166115fc565b92506101000a8154816001600160801b0302191690836001600160801b031602179055505b610b94866112ff565b6040516323b872dd60e01b815291955093506001600160a01b037f000000000000000000000000000000000000000000000000000000000000000016906323b872dd90610be99088903090899060040161154f565b6020604051808303816000875af1158015610c08573d6000803e3d6000fd5b505050506040513d601f19601f82011682018060405250810190610c2c9190611573565b610c605760405162461bcd60e51b8152602060048201526005602482015264070756c6c360dc1b6044820152606401610391565b6040516323b872dd60e01b81526001600160a01b037f000000000000000000000000000000000000000000000000000000000000000016906323b872dd90610cb09088903090889060040161154f565b6020604051808303816000875af1158015610ccf573d6000803e3d6000fd5b505050506040513d601f19601f82011682018060405250810190610cf39190611573565b610d275760405162461bcd60e51b815260206004820152600560248201526470756c6c3160d81b6044820152606401610391565b805486908290600090610d449084906001600160801b03166115fc565b92506101000a8154816001600160801b0302191690836001600160801b031602179055508660020b8860020b8a6001600160a01b03167f66a18001783f241614d6b8e92a4f0bd2be8bebf399ca4a64847bf1305de26ef2898888604051610dc9939291906001600160801b039390931683526020830191909152604082015260600190565b60405180910390a45050610ddd6001600055565b9550959350505050565b600080610df2611169565b6000610dff8888886111fa565b60008181526004602052604090206001810154919250906001600160a01b038a81169116148015610e3d575080546001600160801b03808816911610155b610e6f5760405162461bcd60e51b8152602060048201526003602482015262706f7360e81b6044820152606401610391565b610e8b8888610e866001600160801b038a16611623565b611247565b600154600289810b600160a01b909204900b12801590610eba5750600154600288810b600160a01b909204900b125b15610f28576002546001600160801b039081169087161115610ee5576002546001600160801b031695505b60028054879190600090610f039084906001600160801b0316611649565b92506101000a8154816001600160801b0302191690836001600160801b031602179055505b610f31866112ff565b60405163a9059cbb60e01b81526001600160a01b038881166004830152602482018490529296509094507f00000000000000000000000000000000000000000000000000000000000000009091169063a9059cbb906044016020604051808303816000875af1158015610fa8573d6000803e3d6000fd5b505050506040513d601f19601f82011682018060405250810190610fcc9190611573565b6110005760405162461bcd60e51b8152602060048201526005602482015264073656e64360dc1b6044820152606401610391565b60405163a9059cbb60e01b81526001600160a01b038681166004830152602482018590527f0000000000000000000000000000000000000000000000000000000000000000169063a9059cbb906044016020604051808303816000875af115801561106f573d6000803e3d6000fd5b505050506040513d601f19601f820116820180604052508101906110939190611573565b6110c75760405162461bcd60e51b815260206004820152600560248201526473656e643160d81b6044820152606401610391565b8054869082906000906110e49084906001600160801b0316611649565b92506101000a8154816001600160801b0302191690836001600160801b031602179055508660020b8860020b8a6001600160a01b03167f0c396cd989a39f4459b5fa1aed6a9a8dcdbc45908acfd67e028cd568da98982c898888604051610dc9939291906001600160801b039390931683526020830191909152604082015260600190565b6002600054036111bb5760405162461bcd60e51b815260206004820152601f60248201527f5265656e7472616e637947756172643a207265656e7472616e742063616c6c006044820152606401610391565b6002600055565b6000806111d7600284900b633b9aca00611669565b6111e69064e8d4a51000611699565b9050600081136111f4575060015b92915050565b604080516001600160a01b0385166020820152600284810b928201929092529082900b60608201526000906080016040516020818303038152906040528051906020012090509392505050565b600283810b6000908152600360205260408082209285900b8252812082549091849184919061127a908490600f0b6116c1565b82546001600160801b039182166101009390930a928302919092021990911617905550815460ff60801b1916600160801b1782558054839082906000906112c5908490600f0b6116ee565b82546001600160801b039182166101009390930a928302919092021990911617905550805460ff60801b1916600160801b17905550505050565b60015460009081906001600160a01b0316810361132f576040516321c4e35760e21b815260040160405180910390fd5b620f424061134b6001600160801b03851664e8d4a510006114fb565b6113559190611528565b9150620f42406113736001600160801b03851664e8d4a510006114fb565b61137d9190611528565b9050915091565b60006020828403121561139657600080fd5b5035919050565b6001600160a01b03811681146113b257600080fd5b50565b8035600281900b81146113c757600080fd5b919050565b600080604083850312156113df57600080fd5b82356113ea8161139d565b91506113f8602084016113b5565b90509250929050565b80151581146113b257600080fd5b60008060006060848603121561142457600080fd5b833561142f81611401565b92506020840135915060408401356114468161139d565b809150509250925092565b600080600080600060a0868803121561146957600080fd5b85356114748161139d565b9450611482602087016113b5565b9350611490604087016113b5565b925060608601356001600160801b03811681146114ac57600080fd5b915060808601356114bc8161139d565b809150509295509295909350565b6000602082840312156114dc57600080fd5b61097c826113b5565b634e487b7160e01b600052601160045260246000fd5b80820281158282048414176111f4576111f46114e5565b634e487b7160e01b600052601260045260246000fd5b60008261153757611537611512565b500490565b818103818111156111f4576111f46114e5565b6001600160a01b039384168152919092166020820152604081019190915260600190565b60006020828403121561158557600080fd5b815161097c81611401565b600282810b9082900b03627fffff198112627fffff821317156111f4576111f46114e5565b600281810b9083900b01627fffff8113627fffff19821217156111f4576111f46114e5565b60008260020b806115ed576115ed611512565b808360020b0791505092915050565b6001600160801b0381811683821601908082111561161c5761161c6114e5565b5092915050565b600081600f0b60016001607f1b03198103611640576116406114e5565b60000392915050565b6001600160801b0382811682821603908082111561161c5761161c6114e5565b80820260008212600160ff1b84141615611685576116856114e5565b81810583148215176111f4576111f46114e5565b80820182811260008312801582168215821617156116b9576116b96114e5565b505092915050565b600f81810b9083900b0160016001607f1b03811360016001607f1b0319821217156111f4576111f46114e5565b600f82810b9082900b0360016001607f1b0319811260016001607f1b03821317156111f4576111f46114e556fea2646970667358221220b8af1f84819f072dc39d0f2f2b634ac2384cf083f6e764216495c1384aff890b64736f6c63430008110033",
  "devdoc": {
    "kind": "dev",
    "methods": {},
    "title": "ConcentratedDEX (v3-lite)",
    "version": 1
  },
  "userdoc": {
    "kind": "user",
    "methods": {},
    "notice": "Educational, simplified concentrated liquidity AMM with ranged positions. NOT production-ready. Math is simplified and tick stepping is limited.",
    "version": 1
  },
  "storageLayout": {
    "storage": [
      {
        "astId": 10,
        "contract": "contracts/ConcentratedDEX.sol:ConcentratedDEX",
        "label": "_status",
        "offset": 0,
        "slot": "0",
        "type": "t_uint256"
      },
      {
        "astId": 157,
        "contract": "contracts/ConcentratedDEX.sol:ConcentratedDEX",
        "label": "sqrtPriceX96",
        "offset": 0,
        "slot": "1",
        "type": "t_uint160"
      },
      {
        "astId": 159,
        "contract": "contracts/ConcentratedDEX.sol:ConcentratedDEX",
        "label": "tickCurrent",
        "offset": 20,
        "slot": "1",
        "type": "t_int24"
      },
      {
        "astId": 161,
        "contract": "contracts/ConcentratedDEX.sol:ConcentratedDEX",
        "label": "liquidity",
        "offset": 0,
        "slot": "2",
        "type": "t_uint128"
      },
      {
        "astId": 173,
        "contract": "contracts/ConcentratedDEX.sol:ConcentratedDEX",
        "label": "ticks",
        "offset": 0,
        "slot": "3",
        "type": "t_mapping(t_int24,t_struct(TickInfo)168_storage)"
      },
      {
        "astId": 187,
        "contract": "contracts/ConcentratedDEX.sol:ConcentratedDEX",
        "label": "positions",
        "offset": 0,
        "slot": "4",
        "type": "t_mapping(t_bytes32,t_struct(Position)182_storage)"
      }
    ],
    "types": {
      "t_address": {
        "encoding": "inplace",
        "label": "address",
        "numberOfBytes": "20"
      },
      "t_bool": {
        "encoding": "inplace",
        "label": "bool",
        "numberOfBytes": "1"
      },
      "t_bytes32": {
        "encoding": "inplace",
        "label": "bytes32",
        "numberOfBytes": "32"
      },
      "t_int128": {
        "encoding": "inplace",
        "label": "int128",
        "numberOfBytes": "16"
      },
      "t_int24": {
        "encoding": "inplace",
        "label": "int24",
        "numberOfBytes": "3"
      },
      "t_mapping(t_bytes32,t_struct(Position)182_storage)": {
        "encoding": "mapping",
        "key": "t_bytes32",
        "label": "mapping(bytes32 => struct ConcentratedDEX.Position)",
        "numberOfBytes": "32",
        "value": "t_struct(Position)182_storage"
      },
      "t_mapping(t_int24,t_struct(TickInfo)168_storage)": {
        "encoding": "mapping",
        "key": "t_int24",
        "label": "mapping(int24 => struct ConcentratedDEX.TickInfo)",
        "numberOfBytes": "32",
        "value": "t_struct(TickInfo)168_storage"
      },
      "t_struct(Position)182_storage": {
        "encoding": "inplace",
        "label": "struct ConcentratedDEX.Position",
        "members": [
          {
            "astId": 175,
            "contract": "contracts/ConcentratedDEX.sol:ConcentratedDEX",
            "label": "liquidity",
            "offset": 0,
            "slot": "0",
            "type": "t_uint128"
          },
          {
            "astId": 177,
            "contract": "contracts/ConcentratedDEX.sol:ConcentratedDEX",
            "label": "lowerTick",
            "offset": 16,
            "slot": "0",
            "type": "t_int24"
          },
          {
            "astId": 179,
            "contract": "contracts/ConcentratedDEX.sol:ConcentratedDEX",
            "label": "upperTick",
            "offset": 19,
            "slot": "0",
            "type": "t_int24"
          },
          {
            "astId": 181,
            "contract": "contracts/ConcentratedDEX.sol:ConcentratedDEX",
            "label": "owner",
            "offset": 0,
            "slot": "1",
            "type": "t_address"
          }
        ],
        "numberOfBytes": "64"
      },
      "t_struct(TickInfo)168_storage": {
        "encoding": "inplace",
        "label": "struct ConcentratedDEX.TickInfo",
        "members": [
          {
            "astId": 165,
            "contract": "contracts/ConcentratedDEX.sol:ConcentratedDEX",
            "label": "liquidityNet",
            "offset": 0,
            "slot": "0",
            "type": "t_int128"
          },
          {
            "astId": 167,
            "contract": "contracts/ConcentratedDEX.sol:ConcentratedDEX",
            "label": "initialized",
            "offset": 16,
            "slot": "0",
            "type": "t_bool"
          }
        ],
        "numberOfBytes": "32"
      },
      "t_uint128": {
        "encoding": "inplace",
        "label": "uint128",
        "numberOfBytes": "16"
      },
      "t_uint160": {
        "encoding": "inplace",
        "label": "uint160",
        "numberOfBytes": "20"
      },
      "t_uint256": {
        "encoding": "inplace",
        "label": "uint256",
        "numberOfBytes": "32"
      }
    }
  }
}