{
  "address": "0x21857357a6C50516388300B06f8d3D74D9dd8d3E",
  "abi": [
    {
      "inputs": [
        {
          "internalType": "address",
          "name": "_nftContract",
          "type": "address"
        }
      ],
      "stateMutability": "nonpayable",
      "type": "constructor"
    },
    {
      "anonymous": false,
      "inputs": [
        {
          "indexed": true,
          "internalType": "uint256",
          "name": "tokenId",
          "type": "uint256"
        },
        {
          "indexed": true,
          "internalType": "address",
          "name": "seller",
          "type": "address"
        }
      ],
      "name": "ItemCanceled",
      "type": "event"
    },
    {
      "anonymous": false,
      "inputs": [
        {
          "indexed": true,
          "internalType": "uint256",
          "name": "tokenId",
          "type": "uint256"
        },
        {
          "indexed": true,
          "internalType": "address",
          "name": "seller",
          "type": "address"
        },
        {
          "indexed": false,
          "internalType": "uint256",
          "name": "price",
          "type": "uint256"
        }
      ],
      "name": "ItemListed",
      "type": "event"
    },
    {
      "anonymous": false,
      "inputs": [
        {
          "indexed": true,
          "internalType": "uint256",
          "name": "tokenId",
          "type": "uint256"
        },
        {
          "indexed": true,
          "internalType": "address",
          "name": "buyer",
          "type": "address"
        },
        {
          "indexed": true,
          "internalType": "address",
          "name": "seller",
          "type": "address"
        },
        {
          "indexed": false,
          "internalType": "uint256",
          "name": "price",
          "type": "uint256"
        }
      ],
      "name": "ItemSold",
      "type": "event"
    },
    {
      "inputs": [
        {
          "internalType": "uint256",
          "name": "tokenId",
          "type": "uint256"
        }
      ],
      "name": "buyItem",
      "outputs": [],
      "stateMutability": "payable",
      "type": "function"
    },
    {
      "inputs": [
        {
          "internalType": "uint256",
          "name": "tokenId",
          "type": "uint256"
        }
      ],
      "name": "cancelListing",
      "outputs": [],
      "stateMutability": "nonpayable",
      "type": "function"
    },
    {
      "inputs": [
        {
          "internalType": "uint256",
          "name": "tokenId",
          "type": "uint256"
        }
      ],
      "name": "getListing",
      "outputs": [
        {
          "components": [
            {
              "internalType": "address",
              "name": "seller",
              "type": "address"
            },
            {
              "internalType": "uint256",
              "name": "price",
              "type": "uint256"
            },
            {
              "internalType": "bool",
              "name": "isActive",
              "type": "bool"
            }
          ],
          "internalType": "struct NFTMarketplace.Listing",
          "name": "",
          "type": "tuple"
        }
      ],
      "stateMutability": "view",
      "type": "function"
    },
    {
      "inputs": [
        {
          "internalType": "uint256",
          "name": "tokenId",
          "type": "uint256"
        }
      ],
      "name": "isListed",
      "outputs": [
        {
          "internalType": "bool",
          "name": "",
          "type": "bool"
        }
      ],
      "stateMutability": "view",
      "type": "function"
    },
    {
      "inputs": [
        {
          "internalType": "uint256",
          "name": "tokenId",
          "type": "uint256"
        },
        {
          "internalType": "uint256",
          "name": "price",
          "type": "uint256"
        }
      ],
      "name": "listItem",
      "outputs": [],
      "stateMutability": "nonpayable",
      "type": "function"
    },
    {
      "inputs": [
        {
          "internalType": "uint256",
          "name": "",
          "type": "uint256"
        }
      ],
      "name": "listings",
      "outputs": [
        {
          "internalType": "address",
          "name": "seller",
          "type": "address"
        },
        {
          "internalType": "uint256",
          "name": "price",
          "type": "uint256"
        },
        {
          "internalType": "bool",
          "name": "isActive",
          "type": "bool"
        }
      ],
      "stateMutability": "view",
      "type": "function"
    },
    {
      "inputs": [],
      "name": "nftContract",
      "outputs": [
        {
          "internalType": "contract IERC721",
          "name": "",
          "type": "address"
        }
      ],
      "stateMutability": "view",
      "type": "function"
    }
  ],
  "transactionHash": "0xdba07889c561660a6eea684ad8e57af21227813b3fe82fedb4e9627183e45547",
  "args": [
    "0x8cfb10f293F1Bbb9b6ef164aA9B6F6C2288D72Cc"
  ],
  "numDeployments": 1,
  "solcInputHash": "3ddadba6f2b608dda21b4f7df383cd30",
  "bytecode": "0x60a060405234801561001057600080fd5b50604051610ce2380380610ce283398101604081905261002f91610087565b60016000556001600160a01b0381166100765760405162461bcd60e51b815260206004820152600560248201526406e66743d360dc1b604482015260640160405180910390fd5b6001600160a01b03166080526100b7565b60006020828403121561009957600080fd5b81516001600160a01b03811681146100b057600080fd5b9392505050565b608051610bed6100f560003960008181610171015281816103d9015281816104a60152818161053c015281816107b601526108af0152610bed6000f3fe6080604052600436106100705760003560e01c8063d56d229d1161004e578063d56d229d1461015f578063de74e57b146101ab578063e7fb74c71461021c578063fcce48831461022f57600080fd5b8063107a274a14610075578063305a67a81461011d578063883efa671461013f575b600080fd5b34801561008157600080fd5b506100eb610090366004610b03565b6040805160608082018352600080835260208084018290529284018190529384526001808352938390208351918201845280546001600160a01b03168252938401549181019190915260029092015460ff1615159082015290565b6040805182516001600160a01b0316815260208084015190820152918101511515908201526060015b60405180910390f35b34801561012957600080fd5b5061013d610138366004610b03565b610272565b005b34801561014b57600080fd5b5061013d61015a366004610b1c565b61037f565b34801561016b57600080fd5b506101937f000000000000000000000000000000000000000000000000000000000000000081565b6040516001600160a01b039091168152602001610114565b3480156101b757600080fd5b506101f56101c6366004610b03565b60016020819052600091825260409091208054918101546002909101546001600160a01b039092169160ff1683565b604080516001600160a01b0390941684526020840192909252151590820152606001610114565b61013d61022a366004610b03565b6106cc565b34801561023b57600080fd5b5061026261024a366004610b03565b60009081526001602052604090206002015460ff1690565b6040519015158152602001610114565b600081815260016020818152604092839020835160608101855281546001600160a01b0316815292810154918301919091526002015460ff161515918101829052906102f25760405162461bcd60e51b815260206004820152600a6024820152691b9bdd081b1a5cdd195960b21b60448201526064015b60405180910390fd5b80516001600160a01b031633146103385760405162461bcd60e51b815260206004820152600a6024820152693737ba1039b2b63632b960b11b60448201526064016102e9565b600082815260016020526040808220600201805460ff1916905551339184917f5cb412c9620981e00377453c7d6131d2122a006cd48f53786863f87020c8b5699190a35050565b600081116103b95760405162461bcd60e51b8152602060048201526007602482015266070726963653d360cc1b60448201526064016102e9565b6040516331a9108f60e11b81526004810183905233906001600160a01b037f00000000000000000000000000000000000000000000000000000000000000001690636352211e90602401602060405180830381865afa158015610420573d6000803e3d6000fd5b505050506040513d601f19601f820116820180604052508101906104449190610b3e565b6001600160a01b0316146104865760405162461bcd60e51b81526020600482015260096024820152683737ba1037bbb732b960b91b60448201526064016102e9565b60405163020604bf60e21b81526004810183905230906001600160a01b037f0000000000000000000000000000000000000000000000000000000000000000169063081812fc90602401602060405180830381865afa1580156104ed573d6000803e3d6000fd5b505050506040513d601f19601f820116820180604052508101906105119190610b3e565b6001600160a01b031614806105af575060405163e985e9c560e01b81523360048201523060248201527f00000000000000000000000000000000000000000000000000000000000000006001600160a01b03169063e985e9c590604401602060405180830381865afa15801561058b573d6000803e3d6000fd5b505050506040513d601f19601f820116820180604052508101906105af9190610b6e565b6105ea5760405162461bcd60e51b815260206004820152600c60248201526b1b9bdd08185c1c1c9bdd995960a21b60448201526064016102e9565b60008281526001602052604090206002015460ff16156106355760405162461bcd60e51b81526020600482015260066024820152651b1a5cdd195960d21b60448201526064016102e9565b6040805160608101825233808252602080830185815260018486018181526000898152828552879020955186546001600160a01b0319166001600160a01b03909116178655915190850155516002909301805460ff191693151593909317909255915183815284917fc93edc6ee14cd6c0c2842099adfa8953b237dbdad304ba28e96dce8a7f2a828c910160405180910390a35050565b6106d4610aaa565b600081815260016020818152604092839020835160608101855281546001600160a01b0316815292810154918301919091526002015460ff1615159181018290529061074f5760405162461bcd60e51b815260206004820152600a6024820152691b9bdd081b1a5cdd195960b21b60448201526064016102e9565b80602001513410156107925760405162461bcd60e51b815260206004820152600c60248201526b1a5b9cdd59999a58da595b9d60a21b60448201526064016102e9565b80516040516331a9108f60e11b8152600481018490526001600160a01b03918216917f00000000000000000000000000000000000000000000000000000000000000001690636352211e90602401602060405180830381865afa1580156107fd573d6000803e3d6000fd5b505050506040513d601f19601f820116820180604052508101906108219190610b3e565b6001600160a01b0316146108675760405162461bcd60e51b815260206004820152600d60248201526c1bdddb995c8818da185b99d959609a1b60448201526064016102e9565b60008281526001602052604090819020600201805460ff1916905581519051632142170760e11b81526001600160a01b039182166004820152336024820152604481018490527f0000000000000000000000000000000000000000000000000000000000000000909116906342842e0e90606401600060405180830381600087803b1580156108f557600080fd5b505af1158015610909573d6000803e3d6000fd5b50505050600081600001516001600160a01b0316826020015160405160006040518083038185875af1925050503d8060008114610962576040519150601f19603f3d011682016040523d82523d6000602084013e610967565b606091505b50509050806109a35760405162461bcd60e51b81526020600482015260086024820152671c185e4819985a5b60c21b60448201526064016102e9565b8160200151341115610a4557602082015160009033906109c39034610b90565b604051600081818185875af1925050503d80600081146109ff576040519150601f19603f3d011682016040523d82523d6000602084013e610a04565b606091505b5050905080610a435760405162461bcd60e51b815260206004820152600b60248201526a1c99599d5b990819985a5b60aa1b60448201526064016102e9565b505b81600001516001600160a01b0316336001600160a01b0316847f04ddd54c6b746e69ba87f862311f7670bd1d7276846778ac81cd38747b27a7468560200151604051610a9391815260200190565b60405180910390a45050610aa76001600055565b50565b600260005403610afc5760405162461bcd60e51b815260206004820152601f60248201527f5265656e7472616e637947756172643a207265656e7472616e742063616c6c0060448201526064016102e9565b6002600055565b600060208284031215610b1557600080fd5b5035919050565b60008060408385031215610b2f57600080fd5b50508035926020909101359150565b600060208284031215610b5057600080fd5b81516001600160a01b0381168114610b6757600080fd5b9392505050565b600060208284031215610b8057600080fd5b81518015158114610b6757600080fd5b81810381811115610bb157634e487b7160e01b600052601160045260246000fd5b9291505056fea26469706673582212202b508e34a4e27b98df013bbc5dfa11e1700a47a7b71c3c442c66531c31fc4f7464736f6c63430008110033",
  "devdoc": {
    "details": "Sellers keep NFTs until sold, marketplace only needs approval",
    "kind": "dev",
    "methods": {},
    "title": "NFTMarketplace",
    "version": 1
  },
  "userdoc": {
    "kind": "user",
    "methods": {},
    "notice": "Simple escrowless NFT marketplace for ERC721",
    "version": 1
  },
  "storageLayout": {
    "storage": [
      {
        "astId": 10,
        "contract": "contracts/NFTMarketplace.sol:NFTMarketplace",
        "label": "_status",
        "offset": 0,
        "slot": "0",
        "type": "t_uint256"
      },
      {
        "astId": 4325,
        "contract": "contracts/NFTMarketplace.sol:NFTMarketplace",
        "label": "listings",
        "offset": 0,
        "slot": "1",
        "type": "t_mapping(t_uint256,t_struct(Listing)4317_storage)"
      }
    ],
    "types": {
      "t_address": {
        "encoding": "inplace",
        "label": "address",
        "numberOfBytes": "20"
      },
      "t_bool": {
        "encoding": "inplace",
        "label": "bool",
        "numberOfBytes": "1"
      },
      "t_mapping(t_uint256,t_struct(Listing)4317_storage)": {
        "encoding": "mapping",
        "key": "t_uint256",
        "label": "mapping(uint256 => struct NFTMarketplace.Listing)",
        "numberOfBytes": "32",
        "value": "t_struct(Listing)4317_storage"
      },
      "t_struct(Listing)4317_storage": {
        "encoding": "inplace",
        "label": "struct NFTMarketplace.Listing",
        "members": [
          {
            "astId": 4312,
            "contract": "contracts/NFTMarketplace.sol:NFTMarketplace",
            "label": "seller",
            "offset": 0,
            "slot": "0",
            "type": "t_address"
          },
          {
            "astId": 4314,
            "contract": "contracts/NFTMarketplace.sol:NFTMarketplace",
            "label": "price",
            "offset": 0,
            "slot": "1",
            "type": "t_uint256"
          },
          {
            "astId": 4316,
            "contract": "contracts/NFTMarketplace.sol:NFTMarketplace",
            "label": "isActive",
            "offset": 0,
            "slot": "2",
            "type": "t_bool"
          }
        ],
        "numberOfBytes": "96"
      },
      "t_uint256": {
        "encoding": "inplace",
        "label": "uint256",
        "numberOfBytes": "32"
      }
    }
  }
}