{
  "address": "0x38922cd56f85100614e414C56E97Dec59a323efa",
  "abi": [
    {
      "inputs": [
        {
          "internalType": "address",
          "name": "_tokenA",
          "type": "address"
        },
        {
          "internalType": "address",
          "name": "_tokenB",
          "type": "address"
        }
      ],
      "stateMutability": "nonpayable",
      "type": "constructor"
    },
    {
      "anonymous": false,
      "inputs": [
        {
          "indexed": true,
          "internalType": "address",
          "name": "owner",
          "type": "address"
        },
        {
          "indexed": true,
          "internalType": "address",
          "name": "spender",
          "type": "address"
        },
        {
          "indexed": false,
          "internalType": "uint256",
          "name": "value",
          "type": "uint256"
        }
      ],
      "name": "Approval",
      "type": "event"
    },
    {
      "anonymous": false,
      "inputs": [
        {
          "indexed": true,
          "internalType": "address",
          "name": "token",
          "type": "address"
        },
        {
          "indexed": false,
          "internalType": "uint256",
          "name": "feeAmount",
          "type": "uint256"
        },
        {
          "indexed": false,
          "internalType": "uint256",
          "name": "feePerLPToken",
          "type": "uint256"
        }
      ],
      "name": "FeesAccrued",
      "type": "event"
    },
    {
      "anonymous": false,
      "inputs": [
        {
          "indexed": true,
          "internalType": "address",
          "name": "user",
          "type": "address"
        },
        {
          "indexed": false,
          "internalType": "uint256",
          "name": "amountA",
          "type": "uint256"
        },
        {
          "indexed": false,
          "internalType": "uint256",
          "name": "amountB",
          "type": "uint256"
        }
      ],
      "name": "FeesClaimed",
      "type": "event"
    },
    {
      "anonymous": false,
      "inputs": [
        {
          "indexed": true,
          "internalType": "address",
          "name": "user",
          "type": "address"
        },
        {
          "indexed": true,
          "internalType": "address",
          "name": "token",
          "type": "address"
        },
        {
          "indexed": false,
          "internalType": "uint256",
          "name": "amountOut",
          "type": "uint256"
        },
        {
          "indexed": false,
          "internalType": "uint256",
          "name": "feePaid",
          "type": "uint256"
        }
      ],
      "name": "FlashSwap",
      "type": "event"
    },
    {
      "anonymous": false,
      "inputs": [
        {
          "indexed": true,
          "internalType": "address",
          "name": "provider",
          "type": "address"
        },
        {
          "indexed": false,
          "internalType": "uint256",
          "name": "amountA",
          "type": "uint256"
        },
        {
          "indexed": false,
          "internalType": "uint256",
          "name": "amountB",
          "type": "uint256"
        },
        {
          "indexed": false,
          "internalType": "uint256",
          "name": "liquidityMinted",
          "type": "uint256"
        }
      ],
      "name": "LiquidityAdded",
      "type": "event"
    },
    {
      "anonymous": false,
      "inputs": [
        {
          "indexed": true,
          "internalType": "address",
          "name": "provider",
          "type": "address"
        },
        {
          "indexed": false,
          "internalType": "uint256",
          "name": "amountA",
          "type": "uint256"
        },
        {
          "indexed": false,
          "internalType": "uint256",
          "name": "amountB",
          "type": "uint256"
        },
        {
          "indexed": false,
          "internalType": "uint256",
          "name": "liquidityBurned",
          "type": "uint256"
        }
      ],
      "name": "LiquidityRemoved",
      "type": "event"
    },
    {
      "anonymous": false,
      "inputs": [
        {
          "indexed": true,
          "internalType": "address",
          "name": "user",
          "type": "address"
        },
        {
          "indexed": true,
          "internalType": "address",
          "name": "tokenIn",
          "type": "address"
        },
        {
          "indexed": false,
          "internalType": "uint256",
          "name": "amountIn",
          "type": "uint256"
        },
        {
          "indexed": false,
          "internalType": "uint256",
          "name": "amountOut",
          "type": "uint256"
        }
      ],
      "name": "Swap",
      "type": "event"
    },
    {
      "anonymous": false,
      "inputs": [
        {
          "indexed": true,
          "internalType": "address",
          "name": "from",
          "type": "address"
        },
        {
          "indexed": true,
          "internalType": "address",
          "name": "to",
          "type": "address"
        },
        {
          "indexed": false,
          "internalType": "uint256",
          "name": "value",
          "type": "uint256"
        }
      ],
      "name": "Transfer",
      "type": "event"
    },
    {
      "inputs": [
        {
          "internalType": "uint256",
          "name": "amountA",
          "type": "uint256"
        },
        {
          "internalType": "uint256",
          "name": "amountB",
          "type": "uint256"
        }
      ],
      "name": "addLiquidity",
      "outputs": [
        {
          "internalType": "uint256",
          "name": "liquidityMinted",
          "type": "uint256"
        }
      ],
      "stateMutability": "nonpayable",
      "type": "function"
    },
    {
      "inputs": [
        {
          "internalType": "address",
          "name": "owner",
          "type": "address"
        },
        {
          "internalType": "address",
          "name": "spender",
          "type": "address"
        }
      ],
      "name": "allowance",
      "outputs": [
        {
          "internalType": "uint256",
          "name": "",
          "type": "uint256"
        }
      ],
      "stateMutability": "view",
      "type": "function"
    },
    {
      "inputs": [
        {
          "internalType": "address",
          "name": "spender",
          "type": "address"
        },
        {
          "internalType": "uint256",
          "name": "amount",
          "type": "uint256"
        }
      ],
      "name": "approve",
      "outputs": [
        {
          "internalType": "bool",
          "name": "",
          "type": "bool"
        }
      ],
      "stateMutability": "nonpayable",
      "type": "function"
    },
    {
      "inputs": [
        {
          "internalType": "address",
          "name": "account",
          "type": "address"
        }
      ],
      "name": "balanceOf",
      "outputs": [
        {
          "internalType": "uint256",
          "name": "",
          "type": "uint256"
        }
      ],
      "stateMutability": "view",
      "type": "function"
    },
    {
      "inputs": [],
      "name": "claimFees",
      "outputs": [
        {
          "internalType": "uint256",
          "name": "amountA",
          "type": "uint256"
        },
        {
          "internalType": "uint256",
          "name": "amountB",
          "type": "uint256"
        }
      ],
      "stateMutability": "nonpayable",
      "type": "function"
    },
    {
      "inputs": [
        {
          "internalType": "uint32",
          "name": "secondsAgo",
          "type": "uint32"
        }
      ],
      "name": "consultTwapA",
      "outputs": [
        {
          "internalType": "uint256",
          "name": "priceAvg",
          "type": "uint256"
        }
      ],
      "stateMutability": "view",
      "type": "function"
    },
    {
      "inputs": [
        {
          "internalType": "uint32",
          "name": "secondsAgo",
          "type": "uint32"
        }
      ],
      "name": "consultTwapB",
      "outputs": [
        {
          "internalType": "uint256",
          "name": "priceAvg",
          "type": "uint256"
        }
      ],
      "stateMutability": "view",
      "type": "function"
    },
    {
      "inputs": [],
      "name": "decimals",
      "outputs": [
        {
          "internalType": "uint8",
          "name": "",
          "type": "uint8"
        }
      ],
      "stateMutability": "view",
      "type": "function"
    },
    {
      "inputs": [
        {
          "internalType": "address",
          "name": "spender",
          "type": "address"
        },
        {
          "internalType": "uint256",
          "name": "subtractedValue",
          "type": "uint256"
        }
      ],
      "name": "decreaseAllowance",
      "outputs": [
        {
          "internalType": "bool",
          "name": "",
          "type": "bool"
        }
      ],
      "stateMutability": "nonpayable",
      "type": "function"
    },
    {
      "inputs": [
        {
          "internalType": "address",
          "name": "",
          "type": "address"
        }
      ],
      "name": "feeDebtA",
      "outputs": [
        {
          "internalType": "uint256",
          "name": "",
          "type": "uint256"
        }
      ],
      "stateMutability": "view",
      "type": "function"
    },
    {
      "inputs": [
        {
          "internalType": "address",
          "name": "",
          "type": "address"
        }
      ],
      "name": "feeDebtB",
      "outputs": [
        {
          "internalType": "uint256",
          "name": "",
          "type": "uint256"
        }
      ],
      "stateMutability": "view",
      "type": "function"
    },
    {
      "inputs": [],
      "name": "feeDenominator",
      "outputs": [
        {
          "internalType": "uint256",
          "name": "",
          "type": "uint256"
        }
      ],
      "stateMutability": "view",
      "type": "function"
    },
    {
      "inputs": [],
      "name": "feeNumerator",
      "outputs": [
        {
          "internalType": "uint256",
          "name": "",
          "type": "uint256"
        }
      ],
      "stateMutability": "view",
      "type": "function"
    },
    {
      "inputs": [],
      "name": "feePerLPTokenA",
      "outputs": [
        {
          "internalType": "uint256",
          "name": "",
          "type": "uint256"
        }
      ],
      "stateMutability": "view",
      "type": "function"
    },
    {
      "inputs": [],
      "name": "feePerLPTokenB",
      "outputs": [
        {
          "internalType": "uint256",
          "name": "",
          "type": "uint256"
        }
      ],
      "stateMutability": "view",
      "type": "function"
    },
    {
      "inputs": [
        {
          "internalType": "address",
          "name": "tokenOut",
          "type": "address"
        },
        {
          "internalType": "uint256",
          "name": "amountOut",
          "type": "uint256"
        },
        {
          "internalType": "bytes",
          "name": "data",
          "type": "bytes"
        }
      ],
      "name": "flashSwap",
      "outputs": [],
      "stateMutability": "nonpayable",
      "type": "function"
    },
    {
      "inputs": [],
      "name": "getReserves",
      "outputs": [
        {
          "internalType": "uint256",
          "name": "_reserveA",
          "type": "uint256"
        },
        {
          "internalType": "uint256",
          "name": "_reserveB",
          "type": "uint256"
        },
        {
          "internalType": "uint256",
          "name": "_totalLiquidity",
          "type": "uint256"
        }
      ],
      "stateMutability": "view",
      "type": "function"
    },
    {
      "inputs": [
        {
          "internalType": "address",
          "name": "tokenIn",
          "type": "address"
        },
        {
          "internalType": "uint256",
          "name": "amountIn",
          "type": "uint256"
        }
      ],
      "name": "getSwapAmount",
      "outputs": [
        {
          "internalType": "uint256",
          "name": "amountOut",
          "type": "uint256"
        }
      ],
      "stateMutability": "view",
      "type": "function"
    },
    {
      "inputs": [
        {
          "internalType": "address",
          "name": "user",
          "type": "address"
        }
      ],
      "name": "getUserLiquidity",
      "outputs": [
        {
          "internalType": "uint256",
          "name": "liquidityAmount",
          "type": "uint256"
        },
        {
          "internalType": "uint256",
          "name": "sharePercentage",
          "type": "uint256"
        }
      ],
      "stateMutability": "view",
      "type": "function"
    },
    {
      "inputs": [],
      "name": "governance",
      "outputs": [
        {
          "internalType": "address",
          "name": "",
          "type": "address"
        }
      ],
      "stateMutability": "view",
      "type": "function"
    },
    {
      "inputs": [
        {
          "internalType": "address",
          "name": "spender",
          "type": "address"
        },
        {
          "internalType": "uint256",
          "name": "addedValue",
          "type": "uint256"
        }
      ],
      "name": "increaseAllowance",
      "outputs": [
        {
          "internalType": "bool",
          "name": "",
          "type": "bool"
        }
      ],
      "stateMutability": "nonpayable",
      "type": "function"
    },
    {
      "inputs": [
        {
          "internalType": "address",
          "name": "",
          "type": "address"
        }
      ],
      "name": "liquidity",
      "outputs": [
        {
          "internalType": "uint256",
          "name": "",
          "type": "uint256"
        }
      ],
      "stateMutability": "view",
      "type": "function"
    },
    {
      "inputs": [],
      "name": "name",
      "outputs": [
        {
          "internalType": "string",
          "name": "",
          "type": "string"
        }
      ],
      "stateMutability": "view",
      "type": "function"
    },
    {
      "inputs": [
        {
          "internalType": "uint256",
          "name": "",
          "type": "uint256"
        }
      ],
      "name": "observations",
      "outputs": [
        {
          "internalType": "uint32",
          "name": "timestamp",
          "type": "uint32"
        },
        {
          "internalType": "uint256",
          "name": "priceACumulative",
          "type": "uint256"
        },
        {
          "internalType": "uint256",
          "name": "priceBCumulative",
          "type": "uint256"
        }
      ],
      "stateMutability": "view",
      "type": "function"
    },
    {
      "inputs": [],
      "name": "observationsLength",
      "outputs": [
        {
          "internalType": "uint256",
          "name": "",
          "type": "uint256"
        }
      ],
      "stateMutability": "view",
      "type": "function"
    },
    {
      "inputs": [
        {
          "internalType": "uint256",
          "name": "liquidityAmount",
          "type": "uint256"
        }
      ],
      "name": "removeLiquidity",
      "outputs": [
        {
          "internalType": "uint256",
          "name": "amountA",
          "type": "uint256"
        },
        {
          "internalType": "uint256",
          "name": "amountB",
          "type": "uint256"
        }
      ],
      "stateMutability": "nonpayable",
      "type": "function"
    },
    {
      "inputs": [],
      "name": "reserveA",
      "outputs": [
        {
          "internalType": "uint256",
          "name": "",
          "type": "uint256"
        }
      ],
      "stateMutability": "view",
      "type": "function"
    },
    {
      "inputs": [],
      "name": "reserveB",
      "outputs": [
        {
          "internalType": "uint256",
          "name": "",
          "type": "uint256"
        }
      ],
      "stateMutability": "view",
      "type": "function"
    },
    {
      "inputs": [
        {
          "internalType": "uint256",
          "name": "num",
          "type": "uint256"
        },
        {
          "internalType": "uint256",
          "name": "den",
          "type": "uint256"
        }
      ],
      "name": "setFee",
      "outputs": [],
      "stateMutability": "nonpayable",
      "type": "function"
    },
    {
      "inputs": [
        {
          "internalType": "address",
          "name": "_gov",
          "type": "address"
        }
      ],
      "name": "setGovernance",
      "outputs": [],
      "stateMutability": "nonpayable",
      "type": "function"
    },
    {
      "inputs": [
        {
          "internalType": "address",
          "name": "tokenIn",
          "type": "address"
        },
        {
          "internalType": "uint256",
          "name": "amountIn",
          "type": "uint256"
        },
        {
          "internalType": "uint256",
          "name": "minAmountOut",
          "type": "uint256"
        }
      ],
      "name": "swap",
      "outputs": [
        {
          "internalType": "uint256",
          "name": "amountOut",
          "type": "uint256"
        }
      ],
      "stateMutability": "nonpayable",
      "type": "function"
    },
    {
      "inputs": [],
      "name": "symbol",
      "outputs": [
        {
          "internalType": "string",
          "name": "",
          "type": "string"
        }
      ],
      "stateMutability": "view",
      "type": "function"
    },
    {
      "inputs": [],
      "name": "tokenA",
      "outputs": [
        {
          "internalType": "contract IERC20",
          "name": "",
          "type": "address"
        }
      ],
      "stateMutability": "view",
      "type": "function"
    },
    {
      "inputs": [],
      "name": "tokenB",
      "outputs": [
        {
          "internalType": "contract IERC20",
          "name": "",
          "type": "address"
        }
      ],
      "stateMutability": "view",
      "type": "function"
    },
    {
      "inputs": [],
      "name": "totalLiquidity",
      "outputs": [
        {
          "internalType": "uint256",
          "name": "",
          "type": "uint256"
        }
      ],
      "stateMutability": "view",
      "type": "function"
    },
    {
      "inputs": [],
      "name": "totalSupply",
      "outputs": [
        {
          "internalType": "uint256",
          "name": "",
          "type": "uint256"
        }
      ],
      "stateMutability": "view",
      "type": "function"
    },
    {
      "inputs": [
        {
          "internalType": "address",
          "name": "to",
          "type": "address"
        },
        {
          "internalType": "uint256",
          "name": "amount",
          "type": "uint256"
        }
      ],
      "name": "transfer",
      "outputs": [
        {
          "internalType": "bool",
          "name": "",
          "type": "bool"
        }
      ],
      "stateMutability": "nonpayable",
      "type": "function"
    },
    {
      "inputs": [
        {
          "internalType": "address",
          "name": "from",
          "type": "address"
        },
        {
          "internalType": "address",
          "name": "to",
          "type": "address"
        },
        {
          "internalType": "uint256",
          "name": "amount",
          "type": "uint256"
        }
      ],
      "name": "transferFrom",
      "outputs": [
        {
          "internalType": "bool",
          "name": "",
          "type": "bool"
        }
      ],
      "stateMutability": "nonpayable",
      "type": "function"
    }
  ],
  "transactionHash": "0xd5d5bcafbbf9c63de2fc3e58cfc52798fb9b67db8c1dd157347559919b82ad96",
  "args": [
    "0x9551eDef00De5f2b117B202ba3c78720D348Cfb6",
    "0xA578878755522EF390c479699581D026fd875f47"
  ],
  "numDeployments": 2,
  "solcInputHash": "cb8e8e041b490cc4069655271f56a7c1",
  "bytecode": "0x60c06040523480156200001157600080fd5b50604051620032653803806200326583398101604081905262000034916200026f565b6040518060400160405280600c81526020016b053696d706c65444558204c560a41b815250604051806040016040528060068152602001650534c502d4c560d41b81525081600390816200008991906200034c565b5060046200009882826200034c565b50506001600555506001600160a01b03821615801590620000c157506001600160a01b03811615155b620001135760405162461bcd60e51b815260206004820152601560248201527f496e76616c696420746f6b656e2061646472657373000000000000000000000060448201526064015b60405180910390fd5b806001600160a01b0316826001600160a01b031603620001765760405162461bcd60e51b815260206004820152601860248201527f546f6b656e73206d75737420626520646966666572656e74000000000000000060448201526064016200010a565b6001600160a01b039182166080521660a0526003600d8190556103e8600e556040805160608101825263ffffffff4281168252600060208301818152938301818152601080546001810182559252925194027f1b6847dc741a1b0cd08d278845f9d819d87b734759afb55fe2de5cb82a9ae672810180549590921663ffffffff1990951694909417905590517f1b6847dc741a1b0cd08d278845f9d819d87b734759afb55fe2de5cb82a9ae673830155517f1b6847dc741a1b0cd08d278845f9d819d87b734759afb55fe2de5cb82a9ae6749091015562000418565b80516001600160a01b03811681146200026a57600080fd5b919050565b600080604083850312156200028357600080fd5b6200028e8362000252565b91506200029e6020840162000252565b90509250929050565b634e487b7160e01b600052604160045260246000fd5b600181811c90821680620002d257607f821691505b602082108103620002f357634e487b7160e01b600052602260045260246000fd5b50919050565b601f8211156200034757600081815260208120601f850160051c81016020861015620003225750805b601f850160051c820191505b8181101562000343578281556001016200032e565b5050505b505050565b81516001600160401b03811115620003685762000368620002a7565b6200038081620003798454620002bd565b84620002f9565b602080601f831160018114620003b857600084156200039f5750858301515b600019600386901b1c1916600185901b17855562000343565b600085815260208120601f198616915b82811015620003e957888601518255948401946001909101908401620003c8565b5085821015620004085787850151600019600388901b60f8161c191681555b5050505050600190811b01905550565b60805160a051612d8d620004d8600039600081816103ec015281816106a90152818161089801528181610ce9015281816110ec015281816112dd01528181611520015281816115b30152818161161b0152611d560152600081816102b30152818161066e015281816106fd0152818161085d01528181610b4901528181610bca01528181610c440152818161105a01528181611245015281816114e501528181611574015281816115d4015281816115fa0152611c5b0152612d8d6000f3fe608060405234801561001057600080fd5b50600436106102325760003560e01c806370a0823111610130578063b8c876b1116100b8578063dc5fa6c51161007c578063dc5fa6c51461051c578063dd62ed3e14610525578063dd6c919514610538578063e86dea4a1461054b578063f113f6b81461055457600080fd5b8063b8c876b1146104d0578063c4c51355146104f0578063cd7f5ce2146104f9578063d294f09314610501578063dbbdd9351461050957600080fd5b80639cd441da116100ff5780639cd441da146104715780639f1d0f5914610484578063a457c2d714610497578063a9059cbb146104aa578063ab033ea9146104bd57600080fd5b806370a082311461040e57806393dd84561461042157806395d89b41146104415780639c8f9f231461044957600080fd5b80631befa6db116101be57806335100fa51161018257806335100fa51461038e57806339509351146103ae57806352f7c988146103c15780635aa6e675146103d45780635f64b55b146103e757600080fd5b80631befa6db1461030f57806323b872dd14610322578063252c09d7146103355780632f5576581461036a578063313ce5671461037f57600080fd5b80630fc63d10116102055780630fc63d10146102ae57806315770f92146102ed578063180b0d7e146102f557806318160ddd146102fe57806319e36f3b1461030657600080fd5b806303c90b291461023757806306fdde03146102535780630902f1ac14610268578063095ea7b31461028b575b600080fd5b61024060095481565b6040519081526020015b60405180910390f35b61025b610567565b60405161024a919061296d565b6102706105f9565b6040805193845260208401929092529082015260600161024a565b61029e6102993660046129d7565b610618565b604051901515815260200161024a565b6102d57f000000000000000000000000000000000000000000000000000000000000000081565b6040516001600160a01b03909116815260200161024a565b610240610632565b610240600e5481565b600254610240565b61024060075481565b61024061031d3660046129d7565b610642565b61029e610330366004612a01565b6107b0565b610348610343366004612a3d565b6107d6565b6040805163ffffffff909416845260208401929092529082015260600161024a565b61037d610378366004612a56565b610810565b005b6040516012815260200161024a565b61024061039c366004612add565b600c6020526000908152604090205481565b61029e6103bc3660046129d7565b610da2565b61037d6103cf366004612af8565b610dc4565b600f546102d5906001600160a01b031681565b6102d57f000000000000000000000000000000000000000000000000000000000000000081565b61024061041c366004612add565b610e9b565b61024061042f366004612add565b600b6020526000908152604090205481565b61025b610eb6565b61045c610457366004612a3d565b610ec5565b6040805192835260208301919091520161024a565b61024061047f366004612af8565b6111b5565b610240610492366004612b1a565b6114b1565b61029e6104a53660046129d7565b61193e565b61029e6104b83660046129d7565b6119c4565b61037d6104cb366004612add565b6119d2565b6102406104de366004612add565b60086020526000908152604090205481565b610240600a5481565b601054610240565b61045c611a8e565b61045c610517366004612add565b611e19565b61024060065481565b610240610533366004612b4d565b611e62565b610240610546366004612b80565b611e8d565b610240600d5481565b610240610562366004612b80565b612017565b60606003805461057690612ba6565b80601f01602080910402602001604051908101604052809291908181526020018280546105a290612ba6565b80156105ef5780601f106105c4576101008083540402835291602001916105ef565b820191906000526020600020905b8154815290600101906020018083116105d257829003601f168201915b5050505050905090565b600080600060065460075461060d60025490565b925092509250909192565b600033610626818585612163565b60019150505b92915050565b600061063d60025490565b905090565b600080821161066c5760405162461bcd60e51b815260040161066390612be0565b60405180910390fd5b7f00000000000000000000000000000000000000000000000000000000000000006001600160a01b0316836001600160a01b031614806106dd57507f00000000000000000000000000000000000000000000000000000000000000006001600160a01b0316836001600160a01b0316145b6106f95760405162461bcd60e51b815260040161066390612c17565b60007f00000000000000000000000000000000000000000000000000000000000000006001600160a01b0316846001600160a01b0316149050600080826107455760075460065461074c565b6006546007545b915091506000600d54600e546107629190612c54565b61076c9087612c67565b9050600061077a8383612c67565b9050600082600e548661078d9190612c67565b6107979190612c7e565b90506107a38183612c91565b9998505050505050505050565b6000336107be858285612287565b6107c98585856122fb565b60019150505b9392505050565b601081815481106107e657600080fd5b600091825260209091206003909102018054600182015460029092015463ffffffff909116925083565b6108186124a5565b6108206124fe565b6000831161085b5760405162461bcd60e51b81526020600482015260086024820152670616d6f756e743d360c41b6044820152606401610663565b7f00000000000000000000000000000000000000000000000000000000000000006001600160a01b0316846001600160a01b031614806108cc57507f00000000000000000000000000000000000000000000000000000000000000006001600160a01b0316846001600160a01b0316145b6108e85760405162461bcd60e51b815260040161066390612c17565b6040516370a0823160e01b815230600482015284906000906001600160a01b038316906370a0823190602401602060405180830381865afa158015610931573d6000803e3d6000fd5b505050506040513d601f19601f820116820180604052508101906109559190612cb3565b9050848110156109a05760405162461bcd60e51b8152602060048201526016602482015275696e73756666696369656e74206c697175696469747960501b6044820152606401610663565b60405163a9059cbb60e01b8152336004820152602481018690526001600160a01b0383169063a9059cbb906044016020604051808303816000875af11580156109ed573d6000803e3d6000fd5b505050506040513d601f19601f82011682018060405250810190610a119190612ccc565b50604051634ea0d7e960e11b81523390639d41afd290610a379087908790600401612cee565b600060405180830381600087803b158015610a5157600080fd5b505af1158015610a65573d6000803e3d6000fd5b505050506000600e54600d5487610a7c9190612c67565b610a869190612c91565b6040516370a0823160e01b81523060048201529091506000906001600160a01b038516906370a0823190602401602060405180830381865afa158015610ad0573d6000803e3d6000fd5b505050506040513d601f19601f82011682018060405250810190610af49190612cb3565b9050610b008284612c7e565b811015610b475760405162461bcd60e51b8152602060048201526015602482015274119b185cda081cddd85c081b9bdd081c995c185a59605a1b6044820152606401610663565b7f00000000000000000000000000000000000000000000000000000000000000006001600160a01b0316886001600160a01b031603610b9d578160066000828254610b929190612c7e565b90915550610bb59050565b8160076000828254610baf9190612c7e565b90915550505b6000610bc060025490565b90508015610d47577f00000000000000000000000000000000000000000000000000000000000000006001600160a01b0316896001600160a01b031603610ca65780610c1484670de0b6b3a7640000612c67565b610c1e9190612c91565b60096000828254610c2f9190612c7e565b90915550506009546040516001600160a01b037f000000000000000000000000000000000000000000000000000000000000000016917fd2f36b7fd206a8b1cc41c911e5097cad7b212c0fdb230311dd2568194e7d9a5d91610c9991878252602082015260400190565b60405180910390a2610d47565b80610cb984670de0b6b3a7640000612c67565b610cc39190612c91565b600a6000828254610cd49190612c7e565b9091555050600a546040516001600160a01b037f000000000000000000000000000000000000000000000000000000000000000016917fd2f36b7fd206a8b1cc41c911e5097cad7b212c0fdb230311dd2568194e7d9a5d91610d3e91878252602082015260400190565b60405180910390a25b60408051898152602081018590526001600160a01b038b169133917f171da52ff7ddc9a897ca8fa62e9b6ae006a64ff3bdf2c3225096f3e303652258910160405180910390a35050505050610d9c6001600555565b50505050565b600033610626818585610db58383611e62565b610dbf9190612c7e565b612163565b600f546001600160a01b03163314610e0f5760405162461bcd60e51b815260206004820152600e60248201526d6e6f7420676f7665726e616e636560901b6044820152606401610663565b60008111610e475760405162461bcd60e51b8152602060048201526005602482015264064656e3d360dc1b6044820152606401610663565b80610e53836064612c67565b1115610e905760405162461bcd60e51b815260206004820152600c60248201526b0cccaca40e8dede40d0d2ced60a31b6044820152606401610663565b600d91909155600e55565b6001600160a01b031660009081526020819052604090205490565b60606004805461057690612ba6565b600080610ed06124a5565b610ed86124fe565b60008311610ef85760405162461bcd60e51b815260040161066390612be0565b82610f0233610e9b565b1015610f495760405162461bcd60e51b8152602060048201526016602482015275496e73756666696369656e74206c697175696469747960501b6044820152606401610663565b6000610f5460025490565b90508060065485610f659190612c67565b610f6f9190612c91565b92508060075485610f809190612c67565b610f8a9190612c91565b9150600083118015610f9c5750600082115b610fe85760405162461bcd60e51b815260206004820152601d60248201527f496e73756666696369656e74206c6971756964697479206275726e65640000006044820152606401610663565b610ff23385612673565b610ffb33610e9b565b3360009081526008602052604081209190915560068054859290611020908490612c54565b9250508190555081600760008282546110399190612c54565b909155505060405163a9059cbb60e01b8152336004820152602481018490527f00000000000000000000000000000000000000000000000000000000000000006001600160a01b03169063a9059cbb906044016020604051808303816000875af11580156110ab573d6000803e3d6000fd5b505050506040513d601f19601f820116820180604052508101906110cf9190612ccc565b5060405163a9059cbb60e01b8152336004820152602481018390527f00000000000000000000000000000000000000000000000000000000000000006001600160a01b03169063a9059cbb906044016020604051808303816000875af115801561113d573d6000803e3d6000fd5b505050506040513d601f19601f820116820180604052508101906111619190612ccc565b50604080518481526020810184905290810185905233907f1dc8bb69df2b8e91fbdcbfcf93d951b3f0000f085a95fe3f7946d6161439245d9060600160405180910390a2506111b06001600555565b915091565b60006111bf6124a5565b6111c76124fe565b6000831180156111d75750600082115b6112235760405162461bcd60e51b815260206004820152601e60248201527f416d6f756e7473206d7573742062652067726561746572207468616e203000006044820152606401610663565b6040516323b872dd60e01b8152336004820152306024820152604481018490527f00000000000000000000000000000000000000000000000000000000000000006001600160a01b0316906323b872dd906064016020604051808303816000875af1158015611296573d6000803e3d6000fd5b505050506040513d601f19601f820116820180604052508101906112ba9190612ccc565b506040516323b872dd60e01b8152336004820152306024820152604481018390527f00000000000000000000000000000000000000000000000000000000000000006001600160a01b0316906323b872dd906064016020604051808303816000875af115801561132e573d6000803e3d6000fd5b505050506040513d601f19601f820116820180604052508101906113529190612ccc565b50600061135e60025490565b905080600003611370578391506113bd565b6006546000906113808387612c67565b61138a9190612c91565b90506000600754838661139d9190612c67565b6113a79190612c91565b90508082106113b657806113b8565b815b935050505b6000821161140d5760405162461bcd60e51b815260206004820152601d60248201527f496e73756666696369656e74206c6971756964697479206d696e7465640000006044820152606401610663565b611417338361268a565b61142033610e9b565b3360009081526008602052604081209190915560068054869290611445908490612c7e565b92505081905550826007600082825461145e9190612c7e565b9091555050604080518581526020810185905290810183905233907f64b83944e79c3ce8d4c297411de637c3e102d064677aac0c163976ebdcd6f50e9060600160405180910390a25061062c6001600555565b60006114bb6124a5565b6114c36124fe565b600083116114e35760405162461bcd60e51b815260040161066390612be0565b7f00000000000000000000000000000000000000000000000000000000000000006001600160a01b0316846001600160a01b0316148061155457507f00000000000000000000000000000000000000000000000000000000000000006001600160a01b0316846001600160a01b0316145b6115705760405162461bcd60e51b815260040161066390612c17565b60007f00000000000000000000000000000000000000000000000000000000000000006001600160a01b0316856001600160a01b0316149050600080826115f8577f00000000000000000000000000000000000000000000000000000000000000007f000000000000000000000000000000000000000000000000000000000000000061163b565b7f00000000000000000000000000000000000000000000000000000000000000007f00000000000000000000000000000000000000000000000000000000000000005b915091506000808461165257600754600654611659565b6006546007545b6040516323b872dd60e01b8152336004820152306024820152604481018b905291935091506001600160a01b038516906323b872dd906064016020604051808303816000875af11580156116b1573d6000803e3d6000fd5b505050506040513d601f19601f820116820180604052508101906116d59190612ccc565b506000600d54600e546116e89190612c54565b6116f2908a612c67565b905060006117008383612c67565b9050600082600e54866117139190612c67565b61171d9190612c7e565b90506117298183612c91565b98506000891161177b5760405162461bcd60e51b815260206004820152601a60248201527f496e73756666696369656e74206f757470757420616d6f756e740000000000006044820152606401610663565b8389106117c35760405162461bcd60e51b8152602060048201526016602482015275496e73756666696369656e74206c697175696469747960501b6044820152606401610663565b898910156118075760405162461bcd60e51b815260206004820152601160248201527014db1a5c1c1859d948195e18d959591959607a1b6044820152606401610663565b8715611843578a6006600082825461181f9190612c7e565b9250508190555088600760008282546118389190612c54565b909155506118749050565b8a600760008282546118559190612c7e565b92505081905550886006600082825461186e9190612c54565b90915550505b60405163a9059cbb60e01b8152336004820152602481018a90526001600160a01b0387169063a9059cbb906044016020604051808303816000875af11580156118c1573d6000803e3d6000fd5b505050506040513d601f19601f820116820180604052508101906118e59190612ccc565b50604080518c8152602081018b90526001600160a01b038e169133917ffa2dda1cc1b86e41239702756b13effbc1a092b5c57e3ad320fbe4f3b13fe235910160405180910390a350505050505050506107cf6001600555565b6000338161194c8286611e62565b9050838110156119ac5760405162461bcd60e51b815260206004820152602560248201527f45524332303a2064656372656173656420616c6c6f77616e63652062656c6f77604482015264207a65726f60d81b6064820152608401610663565b6119b98286868403612163565b506001949350505050565b6000336106268185856122fb565b600f546001600160a01b031615611a2e57600f546001600160a01b03163314611a2e5760405162461bcd60e51b815260206004820152600e60248201526d6e6f7420676f7665726e616e636560901b6044820152606401610663565b6001600160a01b038116611a6c5760405162461bcd60e51b81526020600482015260056024820152640676f763d360dc1b6044820152606401610663565b600f80546001600160a01b0319166001600160a01b0392909216919091179055565b600080611a996124a5565b6000611aa433610e9b565b905060008111611ae65760405162461bcd60e51b815260206004820152600d60248201526c4e6f204c502062616c616e636560981b6044820152606401610663565b6000670de0b6b3a764000060095483611aff9190612c67565b611b099190612c91565b90506000670de0b6b3a7640000600a5484611b249190612c67565b611b2e9190612c91565b336000908152600b6020526040902054909150611b4b9083612c54565b336000908152600c6020526040902054909550611b689082612c54565b93506000851180611b795750600084115b611bb85760405162461bcd60e51b815260206004820152601060248201526f4e6f7468696e6720746f20636c61696d60801b6044820152606401610663565b336000908152600b60209081526040808320859055600c90915290208190558415611cd257846006541015611c285760405162461bcd60e51b8152602060048201526016602482015275496e73756666696369656e742041207265736572766560501b6044820152606401610663565b8460066000828254611c3a9190612c54565b909155505060405163a9059cbb60e01b8152336004820152602481018690527f00000000000000000000000000000000000000000000000000000000000000006001600160a01b03169063a9059cbb906044016020604051808303816000875af1158015611cac573d6000803e3d6000fd5b505050506040513d601f19601f82011682018060405250810190611cd09190612ccc565b505b8315611dcd57836007541015611d235760405162461bcd60e51b8152602060048201526016602482015275496e73756666696369656e742042207265736572766560501b6044820152606401610663565b8360076000828254611d359190612c54565b909155505060405163a9059cbb60e01b8152336004820152602481018590527f00000000000000000000000000000000000000000000000000000000000000006001600160a01b03169063a9059cbb906044016020604051808303816000875af1158015611da7573d6000803e3d6000fd5b505050506040513d601f19601f82011682018060405250810190611dcb9190612ccc565b505b604080518681526020810186905233917f1ac537f0ad67b64ac68a04587ff3a4cb6977de22eb2c37ee560897a92c6d07c7910160405180910390a2505050611e156001600555565b9091565b600080611e2583610e9b565b91506000611e3260025490565b905060008111611e43576000611e5a565b80611e5084612710612c67565b611e5a9190612c91565b915050915091565b6001600160a01b03918216600090815260016020908152604080832093909416825291909152205490565b60105460009060021180611ea5575063ffffffff8216155b15611eb257506000919050565b6010805460009190611ec690600190612c54565b81548110611ed657611ed6612d1d565b60009182526020808320604080516060810182526003909402909101805463ffffffff168452600181015492840192909252600291820154908301526010805492945091611f249190612c54565b81548110611f3457611f34612d1d565b60009182526020808320604080516060810182526003909402909101805463ffffffff908116855260018201549385019390935260020154908301528451919350868116911611611f86578151611f93565b8251611f93908690612d33565b90506000818460000151611fa79190612d33565b63ffffffff16905080600003611fc35750600095945050505050565b600083602001518560200151611fd99190612c54565b84518651919250600091611fed9190612d33565b63ffffffff1690508060000361200b57506000979650505050505050565b60006107a38284612c91565b6010546000906002118061202f575063ffffffff8216155b1561203c57506000919050565b601080546000919061205090600190612c54565b8154811061206057612060612d1d565b60009182526020808320604080516060810182526003909402909101805463ffffffff1684526001810154928401929092526002918201549083015260108054929450916120ae9190612c54565b815481106120be576120be612d1d565b60009182526020808320604080516060810182526003909402909101805463ffffffff90811685526001820154938501939093526002015490830152845191935086811691161161211057815161211d565b825161211d908690612d33565b905060008184600001516121319190612d33565b63ffffffff1690508060000361214d5750600095945050505050565b600083604001518560400151611fd99190612c54565b6001600160a01b0383166121c55760405162461bcd60e51b8152602060048201526024808201527f45524332303a20617070726f76652066726f6d20746865207a65726f206164646044820152637265737360e01b6064820152608401610663565b6001600160a01b0382166122265760405162461bcd60e51b815260206004820152602260248201527f45524332303a20617070726f766520746f20746865207a65726f206164647265604482015261737360f01b6064820152608401610663565b6001600160a01b0383811660008181526001602090815260408083209487168084529482529182902085905590518481527f8c5be1e5ebec7d5bd14f71427d1e84f3dd0314c0f7b2291e5b200ac8c7c3b925910160405180910390a3505050565b60006122938484611e62565b90506000198114610d9c57818110156122ee5760405162461bcd60e51b815260206004820152601d60248201527f45524332303a20696e73756666696369656e7420616c6c6f77616e63650000006044820152606401610663565b610d9c8484848403612163565b6001600160a01b03831661235f5760405162461bcd60e51b815260206004820152602560248201527f45524332303a207472616e736665722066726f6d20746865207a65726f206164604482015264647265737360d81b6064820152608401610663565b6001600160a01b0382166123c15760405162461bcd60e51b815260206004820152602360248201527f45524332303a207472616e7366657220746f20746865207a65726f206164647260448201526265737360e81b6064820152608401610663565b6001600160a01b038316600090815260208190526040902054818110156124395760405162461bcd60e51b815260206004820152602660248201527f45524332303a207472616e7366657220616d6f756e7420657863656564732062604482015265616c616e636560d01b6064820152608401610663565b6001600160a01b03848116600081815260208181526040808320878703905593871680835291849020805487019055925185815290927fddf252ad1be2c89b69c2b068fc378daa952ba7f163c4a11628f55a4df523b3ef910160405180910390a3610d9c848484612699565b6002600554036124f75760405162461bcd60e51b815260206004820152601f60248201527f5265656e7472616e637947756172643a207265656e7472616e742063616c6c006044820152606401610663565b6002600555565b601080546000919061251290600190612c54565b8154811061252257612522612d1d565b600091825260209091206003909102018054909150429063ffffffff9081169082160361254d575050565b600080600060065411801561256457506000600754115b156125b35760065460075461258190670de0b6b3a7640000612c67565b61258b9190612c91565b9150600754600654670de0b6b3a76400006125a69190612c67565b6125b09190612c91565b90505b83546000906125c89063ffffffff1685612d33565b63ffffffff169050601060405180606001604052808663ffffffff16815260200183866125f59190612c67565b88600101546126049190612c7e565b81526020016126138486612c67565b88600201546126229190612c7e565b905281546001808201845560009384526020938490208351600390930201805463ffffffff191663ffffffff9093169290921782559282015192810192909255604001516002909101555050505050565b61267d82826126c9565b61268682612802565b5050565b61267d82826128a6565b505050565b6001600160a01b038316156126b1576126b183612802565b6001600160a01b038216156126945761269482612802565b6001600160a01b0382166127295760405162461bcd60e51b815260206004820152602160248201527f45524332303a206275726e2066726f6d20746865207a65726f206164647265736044820152607360f81b6064820152608401610663565b6001600160a01b0382166000908152602081905260409020548181101561279d5760405162461bcd60e51b815260206004820152602260248201527f45524332303a206275726e20616d6f756e7420657863656564732062616c616e604482015261636560f01b6064820152608401610663565b6001600160a01b0383166000818152602081815260408083208686039055600280548790039055518581529192917fddf252ad1be2c89b69c2b068fc378daa952ba7f163c4a11628f55a4df523b3ef910160405180910390a361269483600084612699565b6001600160a01b0381166128135750565b600061281e82610e9b565b9050670de0b6b3a7640000600954826128379190612c67565b6128419190612c91565b6001600160a01b0383166000908152600b6020526040902055600a54670de0b6b3a7640000906128719083612c67565b61287b9190612c91565b6001600160a01b039092166000908152600c6020908152604080832094909455600890529190912055565b6001600160a01b0382166128fc5760405162461bcd60e51b815260206004820152601f60248201527f45524332303a206d696e7420746f20746865207a65726f2061646472657373006044820152606401610663565b806002600082825461290e9190612c7e565b90915550506001600160a01b038216600081815260208181526040808320805486019055518481527fddf252ad1be2c89b69c2b068fc378daa952ba7f163c4a11628f55a4df523b3ef910160405180910390a361268660008383612699565b600060208083528351808285015260005b8181101561299a5785810183015185820160400152820161297e565b506000604082860101526040601f19601f8301168501019250505092915050565b80356001600160a01b03811681146129d257600080fd5b919050565b600080604083850312156129ea57600080fd5b6129f3836129bb565b946020939093013593505050565b600080600060608486031215612a1657600080fd5b612a1f846129bb565b9250612a2d602085016129bb565b9150604084013590509250925092565b600060208284031215612a4f57600080fd5b5035919050565b60008060008060608587031215612a6c57600080fd5b612a75856129bb565b935060208501359250604085013567ffffffffffffffff80821115612a9957600080fd5b818701915087601f830112612aad57600080fd5b813581811115612abc57600080fd5b886020828501011115612ace57600080fd5b95989497505060200194505050565b600060208284031215612aef57600080fd5b6107cf826129bb565b60008060408385031215612b0b57600080fd5b50508035926020909101359150565b600080600060608486031215612b2f57600080fd5b612b38846129bb565b95602085013595506040909401359392505050565b60008060408385031215612b6057600080fd5b612b69836129bb565b9150612b77602084016129bb565b90509250929050565b600060208284031215612b9257600080fd5b813563ffffffff811681146107cf57600080fd5b600181811c90821680612bba57607f821691505b602082108103612bda57634e487b7160e01b600052602260045260246000fd5b50919050565b6020808252601d908201527f416d6f756e74206d7573742062652067726561746572207468616e2030000000604082015260600190565b6020808252600d908201526c24b73b30b634b2103a37b5b2b760991b604082015260600190565b634e487b7160e01b600052601160045260246000fd5b8181038181111561062c5761062c612c3e565b808202811582820484141761062c5761062c612c3e565b8082018082111561062c5761062c612c3e565b600082612cae57634e487b7160e01b600052601260045260246000fd5b500490565b600060208284031215612cc557600080fd5b5051919050565b600060208284031215612cde57600080fd5b815180151581146107cf57600080fd5b60208152816020820152818360408301376000818301604090810191909152601f909201601f19160101919050565b634e487b7160e01b600052603260045260246000fd5b63ffffffff828116828216039080821115612d5057612d50612c3e565b509291505056fea2646970667358221220422ef43888c92cccfe8c9a0f57c00153a86d8031ad1338938bfc5a1d92804b9564736f6c63430008110033",
  "devdoc": {
    "details": "Now mints/burns ERC20 LP tokens representing liquidity shares",
    "kind": "dev",
    "methods": {
      "allowance(address,address)": {
        "details": "See {IERC20-allowance}."
      },
      "approve(address,uint256)": {
        "details": "See {IERC20-approve}. NOTE: If `amount` is the maximum `uint256`, the allowance is not updated on `transferFrom`. This is semantically equivalent to an infinite approval. Requirements: - `spender` cannot be the zero address."
      },
      "balanceOf(address)": {
        "details": "See {IERC20-balanceOf}."
      },
      "constructor": {
        "params": {
          "_tokenA": "Address of first token",
          "_tokenB": "Address of second token"
        }
      },
      "decimals()": {
        "details": "Returns the number of decimals used to get its user representation. For example, if `decimals` equals `2`, a balance of `505` tokens should be displayed to a user as `5.05` (`505 / 10 ** 2`). Tokens usually opt for a value of 18, imitating the relationship between Ether and Wei. This is the default value returned by this function, unless it's overridden. NOTE: This information is only used for _display_ purposes: it in no way affects any of the arithmetic of the contract, including {IERC20-balanceOf} and {IERC20-transfer}."
      },
      "decreaseAllowance(address,uint256)": {
        "details": "Atomically decreases the allowance granted to `spender` by the caller. This is an alternative to {approve} that can be used as a mitigation for problems described in {IERC20-approve}. Emits an {Approval} event indicating the updated allowance. Requirements: - `spender` cannot be the zero address. - `spender` must have allowance for the caller of at least `subtractedValue`."
      },
      "flashSwap(address,uint256,bytes)": {
        "params": {
          "amountOut": "Amount to borrow",
          "data": "Arbitrary data forwarded to receiver",
          "tokenOut": "Address of token to borrow (must be tokenA or tokenB)"
        }
      },
      "increaseAllowance(address,uint256)": {
        "details": "Atomically increases the allowance granted to `spender` by the caller. This is an alternative to {approve} that can be used as a mitigation for problems described in {IERC20-approve}. Emits an {Approval} event indicating the updated allowance. Requirements: - `spender` cannot be the zero address."
      },
      "name()": {
        "details": "Returns the name of the token."
      },
      "symbol()": {
        "details": "Returns the symbol of the token, usually a shorter version of the name."
      },
      "totalSupply()": {
        "details": "See {IERC20-totalSupply}."
      },
      "transfer(address,uint256)": {
        "details": "See {IERC20-transfer}. Requirements: - `to` cannot be the zero address. - the caller must have a balance of at least `amount`."
      },
      "transferFrom(address,address,uint256)": {
        "details": "See {IERC20-transferFrom}. Emits an {Approval} event indicating the updated allowance. This is not required by the EIP. See the note at the beginning of {ERC20}. NOTE: Does not update the allowance if the current allowance is the maximum `uint256`. Requirements: - `from` and `to` cannot be the zero address. - `from` must have a balance of at least `amount`. - the caller must have allowance for ``from``'s tokens of at least `amount`."
      }
    },
    "title": "SimpleDEX",
    "version": 1
  },
  "userdoc": {
    "kind": "user",
    "methods": {
      "addLiquidity(uint256,uint256)": {
        "notice": "Add liquidity to the pool and mint LP tokens"
      },
      "claimFees()": {
        "notice": "Claim accumulated fees for both tokens based on current LP balance"
      },
      "constructor": {
        "notice": "Constructor sets the token pair"
      },
      "consultTwapA(uint32)": {
        "notice": "TWAP over the last `secondsAgo` seconds for price of A in terms of B (1e18-scaled) Uses the last two observations as a simple approximation if window exceeds last interval."
      },
      "consultTwapB(uint32)": {
        "notice": "TWAP over the last `secondsAgo` seconds for price of B in terms of A (1e18-scaled)"
      },
      "flashSwap(address,uint256,bytes)": {
        "notice": "Flash swap: borrow tokenOut, execute callback, and repay + fee within the same tx"
      },
      "getReserves()": {
        "notice": "Get current pool state"
      },
      "getSwapAmount(address,uint256)": {
        "notice": "Calculate swap output amount (view function)"
      },
      "getUserLiquidity(address)": {
        "notice": "Get user's liquidity position (LP balance and share bps)"
      },
      "observationsLength()": {
        "notice": "Number of observations stored"
      },
      "removeLiquidity(uint256)": {
        "notice": "Remove liquidity by burning LP tokens"
      },
      "swap(address,uint256,uint256)": {
        "notice": "Swap one token for another"
      },
      "totalLiquidity()": {
        "notice": "Backwards-compatibility view: totalLiquidity equals ERC20 totalSupply"
      }
    },
    "notice": "A simplified decentralized exchange using constant product AMM (x * y = k)",
    "version": 1
  },
  "storageLayout": {
    "storage": [
      {
        "astId": 320,
        "contract": "contracts/SimpleDEX.sol:SimpleDEX",
        "label": "_balances",
        "offset": 0,
        "slot": "0",
        "type": "t_mapping(t_address,t_uint256)"
      },
      {
        "astId": 326,
        "contract": "contracts/SimpleDEX.sol:SimpleDEX",
        "label": "_allowances",
        "offset": 0,
        "slot": "1",
        "type": "t_mapping(t_address,t_mapping(t_address,t_uint256))"
      },
      {
        "astId": 328,
        "contract": "contracts/SimpleDEX.sol:SimpleDEX",
        "label": "_totalSupply",
        "offset": 0,
        "slot": "2",
        "type": "t_uint256"
      },
      {
        "astId": 330,
        "contract": "contracts/SimpleDEX.sol:SimpleDEX",
        "label": "_name",
        "offset": 0,
        "slot": "3",
        "type": "t_string_storage"
      },
      {
        "astId": 332,
        "contract": "contracts/SimpleDEX.sol:SimpleDEX",
        "label": "_symbol",
        "offset": 0,
        "slot": "4",
        "type": "t_string_storage"
      },
      {
        "astId": 250,
        "contract": "contracts/SimpleDEX.sol:SimpleDEX",
        "label": "_status",
        "offset": 0,
        "slot": "5",
        "type": "t_uint256"
      },
      {
        "astId": 5899,
        "contract": "contracts/SimpleDEX.sol:SimpleDEX",
        "label": "reserveA",
        "offset": 0,
        "slot": "6",
        "type": "t_uint256"
      },
      {
        "astId": 5901,
        "contract": "contracts/SimpleDEX.sol:SimpleDEX",
        "label": "reserveB",
        "offset": 0,
        "slot": "7",
        "type": "t_uint256"
      },
      {
        "astId": 5905,
        "contract": "contracts/SimpleDEX.sol:SimpleDEX",
        "label": "liquidity",
        "offset": 0,
        "slot": "8",
        "type": "t_mapping(t_address,t_uint256)"
      },
      {
        "astId": 5907,
        "contract": "contracts/SimpleDEX.sol:SimpleDEX",
        "label": "feePerLPTokenA",
        "offset": 0,
        "slot": "9",
        "type": "t_uint256"
      },
      {
        "astId": 5909,
        "contract": "contracts/SimpleDEX.sol:SimpleDEX",
        "label": "feePerLPTokenB",
        "offset": 0,
        "slot": "10",
        "type": "t_uint256"
      },
      {
        "astId": 5913,
        "contract": "contracts/SimpleDEX.sol:SimpleDEX",
        "label": "feeDebtA",
        "offset": 0,
        "slot": "11",
        "type": "t_mapping(t_address,t_uint256)"
      },
      {
        "astId": 5917,
        "contract": "contracts/SimpleDEX.sol:SimpleDEX",
        "label": "feeDebtB",
        "offset": 0,
        "slot": "12",
        "type": "t_mapping(t_address,t_uint256)"
      },
      {
        "astId": 5919,
        "contract": "contracts/SimpleDEX.sol:SimpleDEX",
        "label": "feeNumerator",
        "offset": 0,
        "slot": "13",
        "type": "t_uint256"
      },
      {
        "astId": 5921,
        "contract": "contracts/SimpleDEX.sol:SimpleDEX",
        "label": "feeDenominator",
        "offset": 0,
        "slot": "14",
        "type": "t_uint256"
      },
      {
        "astId": 5923,
        "contract": "contracts/SimpleDEX.sol:SimpleDEX",
        "label": "governance",
        "offset": 0,
        "slot": "15",
        "type": "t_address"
      },
      {
        "astId": 6016,
        "contract": "contracts/SimpleDEX.sol:SimpleDEX",
        "label": "observations",
        "offset": 0,
        "slot": "16",
        "type": "t_array(t_struct(Observation)5930_storage)dyn_storage"
      }
    ],
    "types": {
      "t_address": {
        "encoding": "inplace",
        "label": "address",
        "numberOfBytes": "20"
      },
      "t_array(t_struct(Observation)5930_storage)dyn_storage": {
        "base": "t_struct(Observation)5930_storage",
        "encoding": "dynamic_array",
        "label": "struct SimpleDEX.Observation[]",
        "numberOfBytes": "32"
      },
      "t_mapping(t_address,t_mapping(t_address,t_uint256))": {
        "encoding": "mapping",
        "key": "t_address",
        "label": "mapping(address => mapping(address => uint256))",
        "numberOfBytes": "32",
        "value": "t_mapping(t_address,t_uint256)"
      },
      "t_mapping(t_address,t_uint256)": {
        "encoding": "mapping",
        "key": "t_address",
        "label": "mapping(address => uint256)",
        "numberOfBytes": "32",
        "value": "t_uint256"
      },
      "t_string_storage": {
        "encoding": "bytes",
        "label": "string",
        "numberOfBytes": "32"
      },
      "t_struct(Observation)5930_storage": {
        "encoding": "inplace",
        "label": "struct SimpleDEX.Observation",
        "members": [
          {
            "astId": 5925,
            "contract": "contracts/SimpleDEX.sol:SimpleDEX",
            "label": "timestamp",
            "offset": 0,
            "slot": "0",
            "type": "t_uint32"
          },
          {
            "astId": 5927,
            "contract": "contracts/SimpleDEX.sol:SimpleDEX",
            "label": "priceACumulative",
            "offset": 0,
            "slot": "1",
            "type": "t_uint256"
          },
          {
            "astId": 5929,
            "contract": "contracts/SimpleDEX.sol:SimpleDEX",
            "label": "priceBCumulative",
            "offset": 0,
            "slot": "2",
            "type": "t_uint256"
          }
        ],
        "numberOfBytes": "96"
      },
      "t_uint256": {
        "encoding": "inplace",
        "label": "uint256",
        "numberOfBytes": "32"
      },
      "t_uint32": {
        "encoding": "inplace",
        "label": "uint32",
        "numberOfBytes": "4"
      }
    }
  }
}